:100000000C94C7000C94B0010C94DC000C94DC0040
:100010000C94DC000C94DC000C94DC000C94DC00F0
:100020000C94DC000C94DC000C94DC000C94DC00E0
:100030000C94DC000C94DC000C94DC000C94DC00D0
:100040000C94DC000C94DC000C94DC000C94DC00C0
:100050000C94DC00360133014101150118011B012C
:100060001E012101240127012A012D013001410136
:100070004101410141014101410141014101410170
:10008000410141013C01410141013901410141016D
:1000900041013F0100407A10F35A00A0724E180946
:1000A0000010A5D4E80000E87648170000E40B54DF
:1000B000020000CA9A3B000000E1F50500008096AE
:1000C0009800000040420F000000A08601000000E0
:1000D000102700000000E80300000000640000009A
:1000E00000000A00000000000100000000002C7663
:1000F000D888DC674F0823DFC1DFAE59E1B1B7967E
:10010000E5E3E453C63AE651997696E8E6C28426DA
:10011000EB898C9B62ED407C6FFCEFBC9C9F40F2B6
:10012000BAA56FA5F490055A2AF75C936B6CF96732
:100130006DC11BFCE0E40D47FEF520E6B500D0EDF7
:10014000902E0300943577050080841E080000205F
:100150004E0A000000C80C333333330F986E1283FD
:100160001141EF8D2114893BE65516CFFEE6DB18D1
:10017000D1844B381BF77C1D901DA4BBE424203296
:1001800084725E228100C9F124ECA1E53D2711248F
:100190001FBECFE5D4E0DEBFCDBF10E0A0E6B0E0EB
:1001A000EAE3FEE002C005900D92A836B107D9F748
:1001B0000E9422020C941B070C9400008FEF84BB5A
:1001C00085BB80EF81BB0895E82F2FEF80E792E099
:1001D000215080409040E1F700C000008FEF85BBC8
:1001E00012BA6130710571F01CF4672B41F008956B
:1001F0006230710551F06330710551F0089580EE61
:1002000082BB08C080ED82BB05C080EB82BB02C010
:1002100080E782BB8E2F90E0FC01BD97E032F105B4
:1002200080F5E65DFF4F0C948C0480EC85BB08954F
:1002300089EF85BB089584EA85BB089580EB85BB73
:10024000089589E985BB089582E985BB089582E810
:1002500085BB089588EF85BB089580E885BB089528
:1002600080E985BB08958FE785BB08958FEB85BB3B
:10027000089589E885BB089586E885BB089587ECD5
:1002800085BB0895CF92DF92EF92FF920F931F9359
:10029000CF93DF938C01D12CC0E0D0E0CC24C39469
:1002A000F80101900020E9F73197E01BF10BCE1720
:1002B000DF0768F57E018FEFE81AF80AF801EE0D06
:1002C000FF1D80818E3271F4F801EC0FFD1FBE011D
:1002D00080810E94E400BE018EE20E94E40022962A
:1002E000DC2CDECFD11009C0F801EC0FFD1FBE01E0
:1002F00080810E94E400E701D3CFBE016150710903
:10030000C00FD11F88810E94E400E701C9CFDF91AF
:10031000CF911F910F91FF90EF90DF90CF900895B4
:1003200097B1987F8770892B87B9369A3699FECF17
:1003300064B175B180E090E00E946803089597B1C0
:10034000906E97B997B18F70982B97B9369A369966
:10035000FECF64B175B180E090E00E94680308951B
:100360001F920F920FB60F921124CF92DF92EF924D
:10037000FF922F933F934F935F936F937F938F934E
:100380009F93AF93BF93EF93FF93C0906400D0907F
:100390006500E0906600F090670020E030E048E4FF
:1003A00052E4C701B6010E94630381110FC080E0CF
:1003B00090E0A0EAB0E48093640090936500A0937D
:1003C0006600B093670081E088BB27C020E030E082
:1003D00048EC51E4C701B6010E94630381110FC0CC
:1003E00080E090E0A8E4B2E480936400909365001C
:1003F000A0936600B093670084E088BB0EC080E0E5
:1004000090E0A8ECB1E48093640090936500A09321
:100410006600B093670082E088BBFF91EF91BF91C7
:10042000AF919F918F917F916F915F914F913F918C
:100430002F91FF90EF90DF90CF900F900FBE0F9015
:100440001F901895CF93DF93CDB7DEB72A970FB6DD
:10045000F894DEBF0FBECDBF0E94DE0087E087BBF1
:100460008FE088BB90E497B980E886B986B1876051
:1004700086B99BBF8AE085BF929A7894B39B5EC091
:1004800083E00E94900120E030E040EA50E40E94C6
:100490001F0420E030E040E85AE30E941F046B0193
:1004A0007C0184E00E94900120E030E040EA50E4CA
:1004B0000E941F0420E030E040E85AE30E941F043D
:1004C0004B015C0126E234E541E251E4C701B6018B
:1004D0000E941F046B017C0126E234E541E251E4F5
:1004E000C501B4010E941F049B01AC01C701B60104
:1004F0000E94F602C62ED72EE82EF92EA090640098
:10050000B090650000916600109167002A2D3B2D88
:10051000402F512F0E941A04882324F0CA2CDB2C70
:10052000E02EF12E8E010F5F1F4F23E045E06C2D72
:100530007D2D8E2D9F2D0E94920453C068EC80E08B
:100540000E949F016B017C0168EC81E00E949F0189
:100550004B015C0120E030E040EA50E4C701B60105
:100560000E941F0420E030E040E85AE30E941F048C
:100570006B017C0120E030E040EA50E4C501B401A9
:100580000E941F0420E030E040E85AE30E941F046C
:100590009B01AC01C701B6010E94F602C62ED72E00
:1005A000E82EF92EA0906000B090610000916200EA
:1005B000109163002A2D3B2D402F512F0E941A04C9
:1005C000882324F0CA2CDB2CE02EF12E8E010F5F45
:1005D0001F4F23E045E06C2D7D2D8E2D9F2D0E9419
:1005E0009204CE0101960E94420148CF5058BB2789
:1005F000AA270E940E030C94E0030E94D20338F055
:100600000E94D90320F039F49F3F19F426F40C948A
:10061000CF030EF4E095E7FB0C94C903E92F0E9489
:10062000F10358F3BA17620773078407950720F0A0
:1006300079F4A6F50C9413040EF4E0950B2EBA2F62
:10064000A02D0B01B90190010C01CA01A0011124D8
:10065000FF27591B99F0593F50F4503E68F11A1684
:10066000F040A22F232F342F4427585FF3CF469515
:1006700037952795A795F0405395C9F77EF41F1637
:10068000BA0B620B730B840BBAF09150A1F0FF0F01
:10069000BB1F661F771F881FC2F70EC0BA0F621FED
:1006A000731F841F48F4879577956795B795F795DD
:1006B0009E3F08F0B0CF9395880F08F09927EE0F72
:1006C0009795879508950E94A50308F481E0089501
:1006D000E89409C097FB3EF49095809570956195DC
:1006E0007F4F8F4F9F4F9923A9F0F92F96E9BB2792
:1006F0009395F695879577956795B795F111F8CF0E
:10070000FAF4BB0F11F460FF1BC06F5F7F4F8F4F78
:100710009F4F16C0882311F096E911C0772321F06E
:100720009EE8872F762F05C0662371F096E8862F06
:1007300070E060E02AF09A95660F771F881FDAF75D
:10074000880F9695879597F90895990F0008550F8A
:10075000AA0BE0E8FEEF16161706E807F907C0F047
:1007600012161306E407F50798F0621B730B840B4F
:10077000950B39F40A2661F0232B242B252B21F429
:1007800008950A2609F4A140A6958FEF811D811DC9
:10079000089597F99F6780E870E060E008959FEF03
:1007A00080EC089500240A94161617061806090608
:1007B000089500240A9412161306140605060895D7
:1007C000092E0394000C11F4882352F0BB0F40F45F
:1007D000BF2B11F460FF04C06F5F7F4F8F4F9F4F9F
:1007E000089557FD9058440F551F59F05F3F71F021
:1007F0004795880F97FB991F61F09F3F79F0879588
:100800000895121613061406551FF2CF4695F1DF10
:1008100008C0161617061806991FF1CF86957105A0
:10082000610508940895E894BB2766277727CB01D4
:1008300097F908950E94A50308F48FEF08950E9488
:1008400032040C94E0030E94D20338F00E94D903D2
:1008500020F0952311F00C94C9030C94CF031124BC
:100860000C9414040E94F10370F3959FC1F3950F4B
:1008700050E0551F629FF001729FBB27F00DB11D24
:10088000639FAA27F00DB11DAA1F649F6627B00DB4
:10089000A11D661F829F2227B00DA11D621F739F9D
:1008A000B00DA11D621F839FA00D611D221F749FAB
:1008B0003327A00D611D231F849F600D211D822FF2
:1008C000762F6A2F11249F5750409AF0F1F0882319
:1008D0004AF0EE0FFF1FBB1F661F771F881F915046
:1008E0005040A9F79E3F510580F00C94C9030C9429
:1008F00014045F3FE4F3983ED4F3869577956795AB
:10090000B795F795E7959F5FC1F7FE2B880F911D6F
:100910009695879597F90895EE0FFF1F0590F4912E
:10092000E02D0994EF920F931F93CF93DF93E8018B
:1009300047FD02C034E001C034E1042E000C550B29
:1009400057FF03C0519541955109E32E022F242FE3
:10095000AE010E94B204CE01DF91CF911F910F91A1
:10096000EF900895A9E0B0E0E8EBF4E00C94EA061B
:100970006A01122FB02E2BE3201720F0FF24F394EE
:10098000F00E02C02CE3F22E0F2D27E0AE014F5FD8
:100990005F4F0E940C06BC014981842F8970813011
:1009A00031F0E1FC06C0E0FE06C090E205C09DE229
:1009B00003C09BE201C090E05E2D507143FF3CC03C
:1009C000911102C083E001C084E0811718F4212F47
:1009D000281B01C020E051110BC0F601822F30E22C
:1009E000882319F031938150FBCFC20ED11C20E037
:1009F000992329F0D6019C93F60131966F01C60127
:100A00000396E2FE0AC03EE4D6013C9341E411960F
:100A10004C93119712963C9306C03EE6F601308344
:100A200041E641833283FC01322F40E2332309F453
:100A300042C041933150FACF42FF44C0911102C0ED
:100A400083E001C084E0811718F4212F281B01C026
:100A500020E051110BC0F601822F30E2882319F0FB
:100A600031938150FBCFC20ED11C20E0992329F095
:100A7000D6019C93F60131966F01C6010396E2FE02
:100A80000BC039E4D6013C933EE411963C93119798
:100A900036E412963C9307C039E6F60130833EE611
:100AA000318336E63283FC01322F40E2332319F0E2
:100AB00041933150FBCFFC01E20FF11D10828EEF0C
:100AC0009FEFA6C021E030E0911102C020E030E0AD
:100AD000161617061CF4FB01319602C0E1E0F0E0A7
:100AE0002E0F3F1FBB2021F0EB2DF0E0319602C00E
:100AF000E0E0F0E02E0F3F1FE12FF0E02E173F0760
:100B00001CF4121B212F01C020E08E2D887159F496
:100B1000F601822F30E2882319F031938150FBCF08
:100B2000C20ED11C20E0992329F0D6019C93F60136
:100B300031966F0151110BC0F601822F90E388238B
:100B400019F091938150FBCFC20ED11C20E00F2DE4
:100B5000060F9A81342F307144FF03C0913309F49A
:100B60000150101624F4093018F008E001C001E02B
:100B7000AB0177FF02C040E050E0FB01E41BF50B46
:100B8000A1E0B0E0AC0FBD1FEA0FFB1F8EE2A82E64
:100B90004B01801A91080B2D10E011950195110958
:100BA0004F3FBFEF5B0721F4D601AC9211966D0168
:100BB000641775072CF08416950614F4818101C022
:100BC00080E3415051093196D60111967D014017BD
:100BD000510724F0D6018C936701E2CF64177507A3
:100BE00039F4963320F4953319F4311101C081E3BF
:100BF000F6018083F701822F90E2882319F0919308
:100C00008150FBCFF701E20FF11D108280E090E0F0
:100C10002996ECE00C940607283008F027E03327EB
:100C2000DA01990F311D87FD91600096610571050C
:100C300039F432602E5F3D9330E32A95E1F7089551
:100C40009F3F30F080387105610509F03C5F3C5FE3
:100C50003D93913008F08068911DDF93CF931F93EF
:100C60000F93FF92EF92192F987F9695E92F969503
:100C70009695E90FFF27E251FF4F99273327EE247E
:100C8000FF24A701E70105900894079428F4360F84
:100C9000E71EF81E491F511D660F771F881F991FF9
:100CA0000694A1F70590079428F4E70EF81E491F53
:100CB000561FC11D770F881F991F661F0694A1F745
:100CC0000590079428F4F80E491F561FC71FD11D21
:100CD000880F991F661F771F0694A1F70590079448
:100CE00020F4490F561FC71FD81F990F661F771F83
:100CF000881F0694A9F784911095177041F0D69536
:100D0000C79557954795F794E7941A95C1F7E4E985
:100D1000F0E0689415901591359165919591059045
:100D20007FE27395E118F10A430B560BC90BD0090A
:100D3000C0F7E10CF11E431F561FC91FD01D7EF4E2
:100D4000703311F48A95E6CFE894015030F0080F23
:100D50000AF40027021708F4202F2395022F7A3374
:100D600028F079E37D932A95E9F710C07D932A95C1
:100D700089F6069497956795379517951794E11816
:100D8000F10A430B560BC90BD00998F023957E91BD
:100D900073957A3308F070E37C932013B8F77E9153
:100DA00070617D9330F0839571E37D9370E32A95B4
:100DB000E1F71124EF90FF900F911F91CF91DF91F8
:100DC000992787FD909508952F923F924F925F92B9
:100DD0006F927F928F929F92AF92BF92CF92DF924B
:100DE000EF92FF920F931F93CF93DF93CDB7DEB7B0
:100DF000CA1BDB0B0FB6F894DEBF0FBECDBF099444
:100E00002A88398848885F846E847D848C849B849A
:100E1000AA84B984C884DF80EE80FD800C811B81A8
:100E2000AA81B981CE0FD11D0FB6F894DEBF0FBED7
:0A0E3000CDBFED010895F894FFCF47
:080E3A000000803F0000A04011
:00000001FF
